:020000040000FA
:08000000000083018A011E28A3
:08000800F0000308F1000A08F2
:10001000F2000408F3008A01831203138C1E1528D2
:10002000831603138C1E1528792173088400720827
:0C0030008A0071088300F00E700E0900B9
:04003C00F801F601D0
:10004000E52030214720682167208720B9219320AF
:1000500083120317391D28285421AB22E123F223F0
:100060000324142477205C2263226A2271227618EA
:10007000332883120317B91C28280A30AD214F30CA
:10008000AD214B30AD211F30AD21932028288316A0
:10009000031306309F0000308500003086000030DA
:1000A0008700003088000030890083120313850127
:1000B00086018701880189010800831203139016C5
:1000C0001016901190108E018F01101408008316E5
:1000D00003138C16831203130B178B17080083125C
:1000E0000313051D752805117628051508008312D0
:1000F0000313851D7D2885117E2885150800831230
:100100000313851C85288510862885140800831212
:100110000313FF30850087008800C830A9208501BF
:10012000870188010800F7010A30AD210D30AD21AB
:100130007708A120AD210D3C0319A028F70A9828C3
:100140000800820743344D3444343E343E340A348C
:020150000D346C
:0E01520083120313AA001330AC008830AB00F8
:10016000AB03031DB028AC030319B828AB03B028B8
:06017000AA0BAC280800F8
:0A017600831783120317FA003808FC
:1001800084007A0880000301831783120317373035
:100190003806031939140301391CB80A0800FA019A
:1001A000831783120317380884000008FA008317A6
:1001B00083120317373038060319391403018312E9
:1001C0000317391CB80A7A08080083171030840016
:1001D0008001373004060319EF28840AE8288312C7
:1001E00003171030B80083120317B901B9140800BF
:1001F000831203171030B800CF20AD217A080D3AD2
:10020000031DFC28E5200800831783120317FA005A
:10021000620884007A0880000301831783120317A1
:100220006130620603196314030183120317631C10
:10023000E20A0800FA018317831203176208840098
:100240000008FA008317831203176130620603194E
:100250006314030183120317631CE20A7A0808007F
:1002600083173A30840080016130040603193A296B
:10027000840A3329831203173A30E20083120317EA
:10028000E301E3140800831203173A30E2008312FB
:100290000317E301E3141A21FA00AD210D307A06A9
:1002A000031D4B29302108003021831783120317C7
:1002B0003A30E2008317831203171030B800CF20C2
:1002C000FA0004210D307A06031D5F29E52008009D
:1002D00083160313C0308704403099009816181510
:1002E00083120313181698171A081A081A0803011C
:1002F0000800831203139818942918199C29831253
:1003000003131A08F800831203173918A3290D30B4
:100310007806031939157808BB207808AD218312B7
:100320000317B918B9100800831203138514C030DD
:10033000AD21181218160800831203138514C1305A
:10034000AD211A080800831203138514C230AD21B1
:100350001A080D3A031939150800831203130C1EED
:10036000AF2983120313990083160313981CB6292F
:02037000080083
:0E03720083120313AD01AE01AF01831203131A
:1003800083120313B001B10183120313B201B3014D
:1003900083120313B401B50183120313880188018A
:1003A0008701013088041030880401308704080078
:1003B00083120313080883120313F500F50EF030BF
:1003C000F505F50E0310AD18EB29F50D751EF02996
:1003D0000130F500F029F50C031CF0290830F50078
:1003E000831203130808F03975048800080083128B
:1003F0000313080883120313F500F50E0F30F505FB
:100400000310AE18092AF50D751E0E2A0130F500ED
:100410000E2AF50C031C0E2A0830F500F50E831287
:10042000031308080F3975048800080083120313AA
:10043000070883120313F500F50EF030F505F50EED
:100440000310AF18292AF50D751E2E2A0130F5006C
:100450002E2AF50C031C2E2A0830F50083120313F4
:100460000708F0397504870008008312031383120C
:100470000313B003300FB10AB1033008310403197C
:100480002D1008008312031383120313B203320FDB
:10049000B30AB3033208330403192E100800831281
:1004A000031383120313B403340FB50AB5033408DE
:1004B000350403192F100800831203132D1C622A20
:1004C000D82135220800831203132E1C692AF72134
:1004D00042220800831203132F1C702A16224F2277
:1004E0000800831203132D082E042F04F500751C39
:0A04F0007B2A76147C2A761008009F
:0604FA0083120313B6019A
:10050000B701B801B901BA01080083120313BB0196
:10051000BC0137083907BB00BB0D380E3807BB07D5
:100520003A0D3907BC00BB0DBC0D390EBB02031CD4
:10053000BC03380E3707BB070318BC0A3A0E360750
:10054000BB0DBC0DBB070318BC0A3A08BC023A0E2F
:06055000BC07BC07080017
:0A055600831203173A30E2001A2165
:10056000F900473079060319D52A4D307906031969
:100570009D2B463079060319B82B5830790603199C
:10058000FB2A593079060319312B5A3079060319A1
:10059000672B3B3079060319DF2B83120313851475
:1005A0004530AD213130AD2108007D221A21831262
:1005B0000313B7003030B7021A2183120313B600B9
:1005C0003030B6028522831203133B0883120313D3
:1005D000A000831203133C0883120313A100003010
:1005E00020060319F72A013020060319F92AF6100C
:1005F000AF2AF614AF2A1A21F900831203132D3003
:1006000079060319AD142B3079060319AD107D223C
:100610001A2183120313B9003030B9021A21831250
:100620000313B8003030B8021A2183120313B70045
:100630003030B7021A2183120313B6003030B602ED
:100640008522831203133B0883120313A400831231
:1006500003133C0883120313A500831203132D1404
:10066000AF2A1A21F900831203132D3079060319DA
:10067000AE142B3079060319AE107D221A21831295
:100680000313B9003030B9021A2183120313B800E2
:100690003030B8021A2183120313B7003030B7028A
:1006A0001A2183120313B6003030B602852283125A
:1006B00003133B0883120313A600831203133C08A1
:1006C00083120313A700831203132E14AF2A1A21D7
:1006D000F900831203132D3079060319AF142B3060
:1006E00079060319AF107D221A2183120313B90072
:1006F0003030B9021A2183120313B8003030B80227
:100700001A2183120313B7003030B7021A21831263
:100710000313B6003030B6028522831203133B0860
:1007200083120313A800831203133C0883120313DC
:10073000A900831203132F14AF2A7D221A218312DA
:100740000313B7003030B7021A2183120313B60027
:100750003030B6028522831203133B088312031341
:10076000A100831203133C0883120313A200AF2AD3
:100770007D221A2183120313B9003030B9021A21E5
:1007800083120313B8003030B8021A218312031306
:10079000B7003030B7021A2183120313B60030308D
:1007A000B6028522831203133B0883120313A200AF
:1007B000831203133C0883120313A300AF2A3021D2
:1007C000080083120313240883120313B00083125A
:1007D0000313250883120313B10083120313A4012A
:1007E000A501080083120313260883120313B20025
:1007F00083120313270883120313B3008312031316
:10080000A601A7010800831203132808831203130B
:10081000B40083120313290883120313B500831253
:100820000313A801A9010800831203132208F61C70
:0A0830000A3083120313F4000800DD
:04083A000034003452
:02400E007A3FF7
:00000001FF
